{
  "_format": "hh-sol-artifact-1",
  "contractName": "BoxV1",
  "sourceName": "contracts/BoxV1.sol",
  "abi": [
    {
      "inputs": [],
      "name": "area",
      "outputs": [
        {
          "internalType": "uint256",
          "name": "",
          "type": "uint256"
        }
      ],
      "stateMutability": "view",
      "type": "function"
    },
    {
      "inputs": [
        {
          "internalType": "uint256",
          "name": "_length",
          "type": "uint256"
        },
        {
          "internalType": "uint256",
          "name": "_width",
          "type": "uint256"
        }
      ],
      "name": "initialize",
      "outputs": [],
      "stateMutability": "nonpayable",
      "type": "function"
    },
    {
      "inputs": [],
      "name": "length",
      "outputs": [
        {
          "internalType": "uint256",
          "name": "",
          "type": "uint256"
        }
      ],
      "stateMutability": "view",
      "type": "function"
    },
    {
      "inputs": [],
      "name": "width",
      "outputs": [
        {
          "internalType": "uint256",
          "name": "",
          "type": "uint256"
        }
      ],
      "stateMutability": "view",
      "type": "function"
    }
  ],
  "bytecode": "0x608060405234801561001057600080fd5b50610400806100206000396000f3fe608060405234801561001057600080fd5b506004361061004c5760003560e01c80631f7b6d32146100515780634d41892f1461006f5780639ededf771461008d578063e4a30116146100ab575b600080fd5b6100596100c7565b60405161006691906102a5565b60405180910390f35b6100776100cd565b60405161008491906102a5565b60405180910390f35b6100956100e4565b6040516100a291906102a5565b60405180910390f35b6100c560048036038101906100c09190610217565b6100ea565b005b60025481565b60006001546002546100df91906102d1565b905090565b60015481565b600060019054906101000a900460ff166101125760008054906101000a900460ff161561011b565b61011a6101de565b5b61015a576040517f08c379a000000000000000000000000000000000000000000000000000000000815260040161015190610285565b60405180910390fd5b60008060019054906101000a900460ff1615905080156101aa576001600060016101000a81548160ff02191690831515021790555060016000806101000a81548160ff0219169083151502179055505b826002819055508160018190555080156101d95760008060016101000a81548160ff0219169083151502179055505b505050565b60006101e9306101ef565b15905090565b600080823b905060008111915050919050565b600081359050610211816103b3565b92915050565b6000806040838503121561022a57600080fd5b600061023885828601610202565b925050602061024985828601610202565b9150509250929050565b6000610260602e836102c0565b915061026b82610364565b604082019050919050565b61027f8161032b565b82525050565b6000602082019050818103600083015261029e81610253565b9050919050565b60006020820190506102ba6000830184610276565b92915050565b600082825260208201905092915050565b60006102dc8261032b565b91506102e78361032b565b9250817fffffffffffffffffffffffffffffffffffffffffffffffffffffffffffffffff04831182151516156103205761031f610335565b5b828202905092915050565b6000819050919050565b7f4e487b7100000000000000000000000000000000000000000000000000000000600052601160045260246000fd5b7f496e697469616c697a61626c653a20636f6e747261637420697320616c72656160008201527f647920696e697469616c697a6564000000000000000000000000000000000000602082015250565b6103bc8161032b565b81146103c757600080fd5b5056fea2646970667358221220a03e0c463f11c028164f83041d5a0c9d09d6cbe5b72b0c6985e69c5e1cedcd7364736f6c63430008040033",
  "linkReferences": {},
  "deployedLinkReferences": {}
}